{
  "contractName": "KittyContract",
  "abi": [
    {
      "anonymous": false,
      "inputs": [
        {
          "indexed": true,
          "internalType": "address",
          "name": "owner",
          "type": "address"
        },
        {
          "indexed": true,
          "internalType": "address",
          "name": "approved",
          "type": "address"
        },
        {
          "indexed": true,
          "internalType": "uint256",
          "name": "tokenId",
          "type": "uint256"
        }
      ],
      "name": "Approval",
      "type": "event"
    },
    {
      "anonymous": false,
      "inputs": [
        {
          "indexed": true,
          "internalType": "address",
          "name": "from",
          "type": "address"
        },
        {
          "indexed": true,
          "internalType": "address",
          "name": "to",
          "type": "address"
        },
        {
          "indexed": true,
          "internalType": "uint256",
          "name": "tokenId",
          "type": "uint256"
        }
      ],
      "name": "Transfer",
      "type": "event"
    },
    {
      "inputs": [
        {
          "internalType": "uint256",
          "name": "",
          "type": "uint256"
        }
      ],
      "name": "kittyIndexToOwner",
      "outputs": [
        {
          "internalType": "address",
          "name": "",
          "type": "address"
        }
      ],
      "stateMutability": "view",
      "type": "function",
      "constant": true
    },
    {
      "inputs": [],
      "name": "name",
      "outputs": [
        {
          "internalType": "string",
          "name": "",
          "type": "string"
        }
      ],
      "stateMutability": "view",
      "type": "function",
      "constant": true
    },
    {
      "inputs": [],
      "name": "symbol",
      "outputs": [
        {
          "internalType": "string",
          "name": "",
          "type": "string"
        }
      ],
      "stateMutability": "view",
      "type": "function",
      "constant": true
    },
    {
      "inputs": [
        {
          "internalType": "address",
          "name": "owner",
          "type": "address"
        }
      ],
      "name": "balanceOf",
      "outputs": [
        {
          "internalType": "uint256",
          "name": "balance",
          "type": "uint256"
        }
      ],
      "stateMutability": "view",
      "type": "function",
      "constant": true
    },
    {
      "inputs": [],
      "name": "totalSupply",
      "outputs": [
        {
          "internalType": "uint256",
          "name": "total",
          "type": "uint256"
        }
      ],
      "stateMutability": "view",
      "type": "function",
      "constant": true
    },
    {
      "inputs": [
        {
          "internalType": "uint256",
          "name": "tokenId",
          "type": "uint256"
        }
      ],
      "name": "ownerOf",
      "outputs": [
        {
          "internalType": "address",
          "name": "owner",
          "type": "address"
        }
      ],
      "stateMutability": "view",
      "type": "function",
      "constant": true
    },
    {
      "inputs": [
        {
          "internalType": "address",
          "name": "to",
          "type": "address"
        },
        {
          "internalType": "uint256",
          "name": "tokenId",
          "type": "uint256"
        }
      ],
      "name": "transfer",
      "outputs": [],
      "stateMutability": "nonpayable",
      "type": "function"
    }
  ],
  "bytecode": "0x608060405234801561001057600080fd5b50610867806100206000396000f3fe608060405234801561001057600080fd5b506004361061007d5760003560e01c806370a082311161005b57806370a08231146100ee57806395d89b411461011e578063a45f4bfc1461013c578063a9059cbb1461016c5761007d565b806306fdde031461008257806318160ddd146100a05780636352211e146100be575b600080fd5b61008a610188565b60405161009791906105e8565b60405180910390f35b6100a86101c1565b6040516100b59190610623565b60405180910390f35b6100d860048036038101906100d3919061066f565b6101cd565b6040516100e591906106dd565b60405180910390f35b61010860048036038101906101039190610724565b61020a565b6040516101159190610623565b60405180910390f35b610126610253565b60405161013391906105e8565b60405180910390f35b6101566004803603810190610151919061066f565b61028c565b60405161016391906106dd565b60405180910390f35b61018660048036038101906101819190610751565b6102bf565b005b6040518060400160405280600c81526020017f637572696f75734b69747479000000000000000000000000000000000000000081525081565b60008080549050905090565b60006002600083815260200190815260200160002060009054906101000a900473ffffffffffffffffffffffffffffffffffffffff169050919050565b6000600160008373ffffffffffffffffffffffffffffffffffffffff1673ffffffffffffffffffffffffffffffffffffffff168152602001908152602001600020549050919050565b6040518060400160405280600581526020017f435552494b00000000000000000000000000000000000000000000000000000081525081565b60026020528060005260406000206000915054906101000a900473ffffffffffffffffffffffffffffffffffffffff1681565b600073ffffffffffffffffffffffffffffffffffffffff168273ffffffffffffffffffffffffffffffffffffffff16036102f857600080fd5b3073ffffffffffffffffffffffffffffffffffffffff168273ffffffffffffffffffffffffffffffffffffffff160361033057600080fd5b61033a3382610352565b61034357600080fd5b61034e3383836103be565b5050565b60008273ffffffffffffffffffffffffffffffffffffffff166002600084815260200190815260200160002060009054906101000a900473ffffffffffffffffffffffffffffffffffffffff1673ffffffffffffffffffffffffffffffffffffffff1614905092915050565b600160008373ffffffffffffffffffffffffffffffffffffffff1673ffffffffffffffffffffffffffffffffffffffff168152602001908152602001600020600081548092919061040e906107c0565b9190505550816002600083815260200190815260200160002060006101000a81548173ffffffffffffffffffffffffffffffffffffffff021916908373ffffffffffffffffffffffffffffffffffffffff160217905550600073ffffffffffffffffffffffffffffffffffffffff168373ffffffffffffffffffffffffffffffffffffffff16146104ef57600160008473ffffffffffffffffffffffffffffffffffffffff1673ffffffffffffffffffffffffffffffffffffffff16815260200190815260200160002060008154809291906104e990610808565b91905055505b808273ffffffffffffffffffffffffffffffffffffffff168473ffffffffffffffffffffffffffffffffffffffff167fddf252ad1be2c89b69c2b068fc378daa952ba7f163c4a11628f55a4df523b3ef60405160405180910390a4505050565b600081519050919050565b600082825260208201905092915050565b60005b8381101561058957808201518184015260208101905061056e565b83811115610598576000848401525b50505050565b6000601f19601f8301169050919050565b60006105ba8261054f565b6105c4818561055a565b93506105d481856020860161056b565b6105dd8161059e565b840191505092915050565b6000602082019050818103600083015261060281846105af565b905092915050565b6000819050919050565b61061d8161060a565b82525050565b60006020820190506106386000830184610614565b92915050565b600080fd5b61064c8161060a565b811461065757600080fd5b50565b60008135905061066981610643565b92915050565b6000602082840312156106855761068461063e565b5b60006106938482850161065a565b91505092915050565b600073ffffffffffffffffffffffffffffffffffffffff82169050919050565b60006106c78261069c565b9050919050565b6106d7816106bc565b82525050565b60006020820190506106f260008301846106ce565b92915050565b610701816106bc565b811461070c57600080fd5b50565b60008135905061071e816106f8565b92915050565b60006020828403121561073a5761073961063e565b5b60006107488482850161070f565b91505092915050565b600080604083850312156107685761076761063e565b5b60006107768582860161070f565b92505060206107878582860161065a565b9150509250929050565b7f4e487b7100000000000000000000000000000000000000000000000000000000600052601160045260246000fd5b60006107cb8261060a565b91507fffffffffffffffffffffffffffffffffffffffffffffffffffffffffffffffff82036107fd576107fc610791565b5b600182019050919050565b60006108138261060a565b91506000820361082657610825610791565b5b60018203905091905056fea2646970667358221220c15e5a06084f57e856a3780a23d070731e2f6e0770781ab0bb6922eb43463aba64736f6c634300080f0033",
  "immutableReferences": {},
  "source": "pragma solidity ^0.8.15;\n\nimport \"./IERC721.sol\";\n\ncontract KittyContract is IERC721 {\n\n    string public constant name = \"curiousKitty\";\n    string public constant symbol = \"CURIK\";\n\n    struct kitty {\n        uint256 genes;\n        uint64 birthTime;\n        uint32 numId;\n        uint dadId;\n        uint generation;\n    }\n\n    kitty[] kitties;\n\n    mapping(address => uint256) ownershipTokenCount;\n    mapping(uint256 => address) public kittyIndexToOwner;\n\n    function balanceOf(address owner) external view returns (uint256 balance){\n        return ownershipTokenCount[owner];\n    }\n\n    function totalSupply() external view returns (uint256 total){\n        return kitties.length;\n    }\n\n    function ownerOf(uint256 tokenId) external view returns (address owner){\n        return kittyIndexToOwner[tokenId];\n    }\n\n    function transfer(address to, uint256 tokenId) external{\n        require(to != address(0));\n        require(to != address(this));\n        require(_owns(msg.sender, tokenId));\n\n        _transfer(msg.sender, to, tokenId);\n    }\n\n    function _transfer(address _from, address _to, uint256 _tokenId) internal {\n        ownershipTokenCount[_to]++;\n\n        kittyIndexToOwner[_tokenId] = _to;\n\n        if(_from != address(0)) {\n            ownershipTokenCount[_from]--;\n        }\n\n        emit Transfer(_from, _to, _tokenId);\n    }\n\n    function _owns(address _claimant, uint256 _tokenId) internal view returns (bool) {\n        return kittyIndexToOwner[_tokenId] == _claimant;\n    }\n\n\n\n}",
  "sourcePath": "/home/alejandra/Documents/IvanOnTech/academy-kitties-template/contracts/kittyContract.sol",
  "compiler": {
    "name": "solc",
    "version": "0.8.15+commit.e14f2714.Emscripten.clang"
  },
  "schemaVersion": "3.4.8",
  "updatedAt": "2022-08-31T17:53:29.830Z",
  "networkType": "ethereum",
  "devdoc": {
    "kind": "dev",
    "methods": {
      "balanceOf(address)": {
        "details": "Returns the number of tokens in ``owner``'s account."
      },
      "ownerOf(uint256)": {
        "details": "Returns the owner of the `tokenId` token. Requirements: - `tokenId` must exist."
      }
    },
    "version": 1
  },
  "userdoc": {
    "kind": "user",
    "methods": {},
    "version": 1
  }
}