{
  "contractName": "KittyContract",
  "abi": [
    {
      "anonymous": false,
      "inputs": [
        {
          "indexed": true,
          "internalType": "address",
          "name": "owner",
          "type": "address"
        },
        {
          "indexed": true,
          "internalType": "address",
          "name": "approved",
          "type": "address"
        },
        {
          "indexed": true,
          "internalType": "uint256",
          "name": "tokenId",
          "type": "uint256"
        }
      ],
      "name": "Approval",
      "type": "event"
    },
    {
      "anonymous": false,
      "inputs": [
        {
          "indexed": false,
          "internalType": "address",
          "name": "owner",
          "type": "address"
        },
        {
          "indexed": false,
          "internalType": "uint256",
          "name": "kittenId",
          "type": "uint256"
        },
        {
          "indexed": false,
          "internalType": "uint256",
          "name": "mumId",
          "type": "uint256"
        },
        {
          "indexed": false,
          "internalType": "uint256",
          "name": "dadId",
          "type": "uint256"
        },
        {
          "indexed": false,
          "internalType": "uint256",
          "name": "genes",
          "type": "uint256"
        }
      ],
      "name": "Birth",
      "type": "event"
    },
    {
      "anonymous": false,
      "inputs": [
        {
          "indexed": true,
          "internalType": "address",
          "name": "from",
          "type": "address"
        },
        {
          "indexed": true,
          "internalType": "address",
          "name": "to",
          "type": "address"
        },
        {
          "indexed": true,
          "internalType": "uint256",
          "name": "tokenId",
          "type": "uint256"
        }
      ],
      "name": "Transfer",
      "type": "event"
    },
    {
      "inputs": [],
      "name": "CREATION_LIMIT_GEN0",
      "outputs": [
        {
          "internalType": "uint256",
          "name": "",
          "type": "uint256"
        }
      ],
      "stateMutability": "view",
      "type": "function",
      "constant": true
    },
    {
      "inputs": [],
      "name": "gen0counter",
      "outputs": [
        {
          "internalType": "uint256",
          "name": "",
          "type": "uint256"
        }
      ],
      "stateMutability": "view",
      "type": "function",
      "constant": true
    },
    {
      "inputs": [
        {
          "internalType": "uint256",
          "name": "",
          "type": "uint256"
        }
      ],
      "name": "kittyIndexToOwner",
      "outputs": [
        {
          "internalType": "address",
          "name": "",
          "type": "address"
        }
      ],
      "stateMutability": "view",
      "type": "function",
      "constant": true
    },
    {
      "inputs": [],
      "name": "name",
      "outputs": [
        {
          "internalType": "string",
          "name": "",
          "type": "string"
        }
      ],
      "stateMutability": "view",
      "type": "function",
      "constant": true
    },
    {
      "inputs": [],
      "name": "symbol",
      "outputs": [
        {
          "internalType": "string",
          "name": "",
          "type": "string"
        }
      ],
      "stateMutability": "view",
      "type": "function",
      "constant": true
    },
    {
      "inputs": [
        {
          "internalType": "uint256",
          "name": "_genes",
          "type": "uint256"
        }
      ],
      "name": "createKittyGen0",
      "outputs": [
        {
          "internalType": "uint256",
          "name": "",
          "type": "uint256"
        }
      ],
      "stateMutability": "nonpayable",
      "type": "function"
    },
    {
      "inputs": [
        {
          "internalType": "uint256",
          "name": "tokenId",
          "type": "uint256"
        }
      ],
      "name": "getKitty",
      "outputs": [
        {
          "internalType": "uint256",
          "name": "genes",
          "type": "uint256"
        },
        {
          "internalType": "uint64",
          "name": "birthTime",
          "type": "uint64"
        },
        {
          "internalType": "uint32",
          "name": "mumId",
          "type": "uint32"
        },
        {
          "internalType": "uint32",
          "name": "dadId",
          "type": "uint32"
        },
        {
          "internalType": "uint16",
          "name": "generation",
          "type": "uint16"
        }
      ],
      "stateMutability": "view",
      "type": "function",
      "constant": true
    },
    {
      "inputs": [
        {
          "internalType": "address",
          "name": "owner",
          "type": "address"
        }
      ],
      "name": "balanceOf",
      "outputs": [
        {
          "internalType": "uint256",
          "name": "balance",
          "type": "uint256"
        }
      ],
      "stateMutability": "view",
      "type": "function",
      "constant": true
    },
    {
      "inputs": [],
      "name": "totalSupply",
      "outputs": [
        {
          "internalType": "uint256",
          "name": "total",
          "type": "uint256"
        }
      ],
      "stateMutability": "view",
      "type": "function",
      "constant": true
    },
    {
      "inputs": [
        {
          "internalType": "uint256",
          "name": "tokenId",
          "type": "uint256"
        }
      ],
      "name": "ownerOf",
      "outputs": [
        {
          "internalType": "address",
          "name": "owner",
          "type": "address"
        }
      ],
      "stateMutability": "view",
      "type": "function",
      "constant": true
    },
    {
      "inputs": [
        {
          "internalType": "address",
          "name": "to",
          "type": "address"
        },
        {
          "internalType": "uint256",
          "name": "tokenId",
          "type": "uint256"
        }
      ],
      "name": "transfer",
      "outputs": [],
      "stateMutability": "nonpayable",
      "type": "function"
    }
  ],
  "bytecode": "0x608060405234801561001057600080fd5b50336000806101000a81548173ffffffffffffffffffffffffffffffffffffffff021916908373ffffffffffffffffffffffffffffffffffffffff160217905550610df7806100606000396000f3fe608060405234801561001057600080fd5b50600436106100a95760003560e01c8063a45f4bfc11610071578063a45f4bfc14610168578063a9059cbb14610198578063b4834330146101b4578063d5a776ca146101d2578063da08b83314610202578063e98b7f4d14610220576100a9565b806306fdde03146100ae57806318160ddd146100cc5780636352211e146100ea57806370a082311461011a57806395d89b411461014a575b600080fd5b6100b6610254565b6040516100c39190610a10565b60405180910390f35b6100d461028d565b6040516100e19190610a4b565b60405180910390f35b61010460048036038101906100ff9190610a97565b61029a565b6040516101119190610b05565b60405180910390f35b610134600480360381019061012f9190610b4c565b6102d7565b6040516101419190610a4b565b60405180910390f35b610152610320565b60405161015f9190610a10565b60405180910390f35b610182600480360381019061017d9190610a97565b610359565b60405161018f9190610b05565b60405180910390f35b6101b260048036038101906101ad9190610b79565b61038c565b005b6101bc61041f565b6040516101c99190610a4b565b60405180910390f35b6101ec60048036038101906101e79190610a97565b610424565b6040516101f99190610a4b565b60405180910390f35b61020a6104bc565b6040516102179190610a4b565b60405180910390f35b61023a60048036038101906102359190610a97565b6104c2565b60405161024b959493929190610c18565b60405180910390f35b6040518060400160405280600c81526020017f637572696f75734b69747479000000000000000000000000000000000000000081525081565b6000600180549050905090565b60006003600083815260200190815260200160002060009054906101000a900473ffffffffffffffffffffffffffffffffffffffff169050919050565b6000600260008373ffffffffffffffffffffffffffffffffffffffff1673ffffffffffffffffffffffffffffffffffffffff168152602001908152602001600020549050919050565b6040518060400160405280600581526020017f435552494b00000000000000000000000000000000000000000000000000000081525081565b60036020528060005260406000206000915054906101000a900473ffffffffffffffffffffffffffffffffffffffff1681565b600073ffffffffffffffffffffffffffffffffffffffff168273ffffffffffffffffffffffffffffffffffffffff16036103c557600080fd5b3073ffffffffffffffffffffffffffffffffffffffff168273ffffffffffffffffffffffffffffffffffffffff16036103fd57600080fd5b61040733826105ee565b61041057600080fd5b61041b33838361065a565b5050565b600a81565b60008060009054906101000a900473ffffffffffffffffffffffffffffffffffffffff1673ffffffffffffffffffffffffffffffffffffffff163373ffffffffffffffffffffffffffffffffffffffff161461047f57600080fd5b600a6004541061048e57600080fd5b600460008154809291906104a190610c9a565b91905055506104b5600080600085336107eb565b9050919050565b60045481565b600080600080600060018054905086106104db57600080fd5b600186815481106104ef576104ee610ce2565b5b9060005260206000209060020201600001546001878154811061051557610514610ce2565b5b906000526020600020906002020160010160009054906101000a900467ffffffffffffffff166001888154811061054f5761054e610ce2565b5b906000526020600020906002020160010160089054906101000a900463ffffffff166001898154811061058557610584610ce2565b5b9060005260206000209060020201600101600c9054906101000a900463ffffffff1660018a815481106105bb576105ba610ce2565b5b906000526020600020906002020160010160109054906101000a900461ffff169450945094509450945091939590929450565b60008273ffffffffffffffffffffffffffffffffffffffff166003600084815260200190815260200160002060009054906101000a900473ffffffffffffffffffffffffffffffffffffffff1673ffffffffffffffffffffffffffffffffffffffff1614905092915050565b600260008373ffffffffffffffffffffffffffffffffffffffff1673ffffffffffffffffffffffffffffffffffffffff16815260200190815260200160002060008154809291906106aa90610c9a565b9190505550816003600083815260200190815260200160002060006101000a81548173ffffffffffffffffffffffffffffffffffffffff021916908373ffffffffffffffffffffffffffffffffffffffff160217905550600073ffffffffffffffffffffffffffffffffffffffff168373ffffffffffffffffffffffffffffffffffffffff161461078b57600260008473ffffffffffffffffffffffffffffffffffffffff1673ffffffffffffffffffffffffffffffffffffffff168152602001908152602001600020600081548092919061078590610d11565b91905055505b808273ffffffffffffffffffffffffffffffffffffffff168473ffffffffffffffffffffffffffffffffffffffff167fddf252ad1be2c89b69c2b068fc378daa952ba7f163c4a11628f55a4df523b3ef60405160405180910390a4505050565b6000806040518060a001604052808581526020014267ffffffffffffffff1681526020018863ffffffff1681526020018763ffffffff1681526020018661ffff16815250905060018190806001815401808255809150506001900390600052602060002090600202016000909190919091506000820151816000015560208201518160010160006101000a81548167ffffffffffffffff021916908367ffffffffffffffff16021790555060408201518160010160086101000a81548163ffffffff021916908363ffffffff160217905550606082015181600101600c6101000a81548163ffffffff021916908363ffffffff16021790555060808201518160010160106101000a81548161ffff021916908361ffff160217905550505060006001808054905061091c9190610d3a565b90507f0a5311bd2a6608f08a180df2ee7c5946819a649b204b554bb8e39825b2c50ad584828a8a89604051610955959493929190610d6e565b60405180910390a16109696000858361065a565b809250505095945050505050565b600081519050919050565b600082825260208201905092915050565b60005b838110156109b1578082015181840152602081019050610996565b838111156109c0576000848401525b50505050565b6000601f19601f8301169050919050565b60006109e282610977565b6109ec8185610982565b93506109fc818560208601610993565b610a05816109c6565b840191505092915050565b60006020820190508181036000830152610a2a81846109d7565b905092915050565b6000819050919050565b610a4581610a32565b82525050565b6000602082019050610a606000830184610a3c565b92915050565b600080fd5b610a7481610a32565b8114610a7f57600080fd5b50565b600081359050610a9181610a6b565b92915050565b600060208284031215610aad57610aac610a66565b5b6000610abb84828501610a82565b91505092915050565b600073ffffffffffffffffffffffffffffffffffffffff82169050919050565b6000610aef82610ac4565b9050919050565b610aff81610ae4565b82525050565b6000602082019050610b1a6000830184610af6565b92915050565b610b2981610ae4565b8114610b3457600080fd5b50565b600081359050610b4681610b20565b92915050565b600060208284031215610b6257610b61610a66565b5b6000610b7084828501610b37565b91505092915050565b60008060408385031215610b9057610b8f610a66565b5b6000610b9e85828601610b37565b9250506020610baf85828601610a82565b9150509250929050565b600067ffffffffffffffff82169050919050565b610bd681610bb9565b82525050565b600063ffffffff82169050919050565b610bf581610bdc565b82525050565b600061ffff82169050919050565b610c1281610bfb565b82525050565b600060a082019050610c2d6000830188610a3c565b610c3a6020830187610bcd565b610c476040830186610bec565b610c546060830185610bec565b610c616080830184610c09565b9695505050505050565b7f4e487b7100000000000000000000000000000000000000000000000000000000600052601160045260246000fd5b6000610ca582610a32565b91507fffffffffffffffffffffffffffffffffffffffffffffffffffffffffffffffff8203610cd757610cd6610c6b565b5b600182019050919050565b7f4e487b7100000000000000000000000000000000000000000000000000000000600052603260045260246000fd5b6000610d1c82610a32565b915060008203610d2f57610d2e610c6b565b5b600182039050919050565b6000610d4582610a32565b9150610d5083610a32565b925082821015610d6357610d62610c6b565b5b828203905092915050565b600060a082019050610d836000830188610af6565b610d906020830187610a3c565b610d9d6040830186610a3c565b610daa6060830185610a3c565b610db76080830184610a3c565b969550505050505056fea2646970667358221220fd7a68d4119ad3846f8b176ab4a50912cab4a50553bc461ccb95a401f70430f664736f6c634300080f0033",
  "immutableReferences": {},
  "source": "pragma solidity ^0.8.15;\n\nimport \"./IERC721.sol\";\nimport \"./Ownable.sol\";\n\ncontract KittyContract is IERC721, Ownable {\n\n    uint256 public constant CREATION_LIMIT_GEN0 = 10;\n    string public constant name = \"curiousKitty\";\n    string public constant symbol = \"CURIK\";\n    \n    //website knows every birth of cat.\n    event Birth(\n        address owner, \n        uint256 kittenId,\n        uint256 mumId,\n        uint256 dadId,\n        uint256 genes\n    );\n\n    struct Kitty {\n        uint256 genes;\n        uint64 birthTime;\n        uint32 mumId;\n        uint32 dadId;\n        uint16 generation;\n    }\n\n    Kitty[] kitties;\n\n    mapping(address => uint256) ownershipTokenCount;\n    mapping(uint256 => address) public kittyIndexToOwner;\n    \n    uint256 public gen0counter;\n\n    //oinly the contract owner\n    function createKittyGen0(uint256 _genes) public onlyOwner returns (uint256){\n        require(gen0counter < CREATION_LIMIT_GEN0);\n\n        gen0counter++;\n\n        return _createKitty(0, 0, 0, _genes, msg.sender);\n    }\n\n    function _createKitty(\n        uint256 _mumId,\n        uint256 _dadId,\n        uint256 _generation,\n        uint256 _genes,\n        address _owner\n    ) private returns (uint256) {\n        Kitty memory _kitty = Kitty({\n            genes: _genes,\n            birthTime: uint64(block.timestamp),\n            mumId: uint32(_mumId),\n            dadId: uint32(_dadId),\n            generation: uint16(_generation) \n        });\n        \n        kitties.push(_kitty);\n        uint256 newKittenId = kitties.length - 1;\n        emit Birth(_owner, newKittenId, _mumId, _dadId, _genes);\n        _transfer(address(0), _owner, newKittenId);\n        return newKittenId;\n    }\n\n    function getKitty(uint256 tokenId) external view returns(\n        uint256 genes,\n        uint64 birthTime, \n        uint32 mumId,\n        uint32 dadId,\n        uint16 generation\n        )\n        {\n        require(tokenId < kitties.length);\n        return (\n            kitties[tokenId].genes,\n            kitties[tokenId].birthTime,\n            kitties[tokenId].mumId,\n            kitties[tokenId].dadId,\n            kitties[tokenId].generation\n        );\n    }\n\n    function balanceOf(address owner) external view returns (uint256 balance){\n        return ownershipTokenCount[owner];\n    }\n\n    function totalSupply() external view returns (uint256 total){\n        return kitties.length;\n    }\n\n    function ownerOf(uint256 tokenId) external view returns (address owner){\n        return kittyIndexToOwner[tokenId];\n    }\n\n    function transfer(address to, uint256 tokenId) external{\n        require(to != address(0));\n        require(to != address(this));\n        require(_owns(msg.sender, tokenId));\n\n        _transfer(msg.sender, to, tokenId);\n    }\n\n    function _transfer(address _from, address _to, uint256 _tokenId) internal {\n        ownershipTokenCount[_to]++;\n\n        kittyIndexToOwner[_tokenId] = _to;\n\n        if(_from != address(0)) {\n            ownershipTokenCount[_from]--;\n        }\n\n        emit Transfer(_from, _to, _tokenId);\n    }\n\n    function _owns(address _claimant, uint256 _tokenId) internal view returns (bool) {\n        return kittyIndexToOwner[_tokenId] == _claimant;\n    }\n\n\n\n}",
  "sourcePath": "/home/alejandra/Documents/IvanOnTech/academy-kitties-template/contracts/kittyContract.sol",
  "compiler": {
    "name": "solc",
    "version": "0.8.15+commit.e14f2714.Emscripten.clang"
  },
  "schemaVersion": "3.4.8",
  "updatedAt": "2022-09-08T15:15:03.520Z",
  "networkType": "ethereum",
  "devdoc": {
    "kind": "dev",
    "methods": {
      "balanceOf(address)": {
        "details": "Returns the number of tokens in ``owner``'s account."
      },
      "ownerOf(uint256)": {
        "details": "Returns the owner of the `tokenId` token. Requirements: - `tokenId` must exist."
      }
    },
    "version": 1
  },
  "userdoc": {
    "kind": "user",
    "methods": {},
    "version": 1
  }
}